{
  "_format": "hh-sol-artifact-1",
  "contractName": "CampaignDonation",
  "sourceName": "contracts/CharityDonation.sol",
  "abi": [
    {
      "inputs": [
        {
          "internalType": "address[]",
          "name": "_admins",
          "type": "address[]"
        },
        {
          "internalType": "address[]",
          "name": "_signers",
          "type": "address[]"
        },
        {
          "internalType": "uint256",
          "name": "_requiredSignatures",
          "type": "uint256"
        },
        {
          "internalType": "address",
          "name": "_ContributorNFTAddress",
          "type": "address"
        }
      ],
      "stateMutability": "nonpayable",
      "type": "constructor"
    },
    {
      "anonymous": false,
      "inputs": [
        {
          "indexed": false,
          "internalType": "uint256",
          "name": "id",
          "type": "uint256"
        },
        {
          "indexed": false,
          "internalType": "address",
          "name": "creator",
          "type": "address"
        },
        {
          "indexed": false,
          "internalType": "string",
          "name": "title",
          "type": "string"
        },
        {
          "indexed": false,
          "internalType": "uint256",
          "name": "targetAmount",
          "type": "uint256"
        }
      ],
      "name": "CampaignCreated",
      "type": "event"
    },
    {
      "anonymous": false,
      "inputs": [
        {
          "indexed": false,
          "internalType": "uint256",
          "name": "id",
          "type": "uint256"
        },
        {
          "indexed": false,
          "internalType": "bool",
          "name": "active",
          "type": "bool"
        }
      ],
      "name": "CampaignStatusUpdated",
      "type": "event"
    },
    {
      "anonymous": false,
      "inputs": [
        {
          "indexed": false,
          "internalType": "uint256",
          "name": "id",
          "type": "uint256"
        },
        {
          "indexed": false,
          "internalType": "string",
          "name": "updateMessage",
          "type": "string"
        }
      ],
      "name": "CampaignUpdated",
      "type": "event"
    },
    {
      "anonymous": false,
      "inputs": [
        {
          "indexed": false,
          "internalType": "uint256",
          "name": "campaignId",
          "type": "uint256"
        },
        {
          "indexed": false,
          "internalType": "address",
          "name": "donor",
          "type": "address"
        },
        {
          "indexed": false,
          "internalType": "uint256",
          "name": "amount",
          "type": "uint256"
        }
      ],
      "name": "DonationReceived",
      "type": "event"
    },
    {
      "anonymous": false,
      "inputs": [
        {
          "indexed": false,
          "internalType": "uint256",
          "name": "campaignId",
          "type": "uint256"
        },
        {
          "indexed": false,
          "internalType": "address[]",
          "name": "topContributors",
          "type": "address[]"
        }
      ],
      "name": "TopContributorsRewarded",
      "type": "event"
    },
    {
      "anonymous": false,
      "inputs": [
        {
          "indexed": false,
          "internalType": "uint256",
          "name": "txId",
          "type": "uint256"
        },
        {
          "indexed": false,
          "internalType": "address",
          "name": "signer",
          "type": "address"
        }
      ],
      "name": "TransactionApproved",
      "type": "event"
    },
    {
      "anonymous": false,
      "inputs": [
        {
          "indexed": false,
          "internalType": "uint256",
          "name": "txId",
          "type": "uint256"
        },
        {
          "indexed": false,
          "internalType": "address",
          "name": "recipient",
          "type": "address"
        },
        {
          "indexed": false,
          "internalType": "uint256",
          "name": "amount",
          "type": "uint256"
        }
      ],
      "name": "TransactionCreated",
      "type": "event"
    },
    {
      "anonymous": false,
      "inputs": [
        {
          "indexed": false,
          "internalType": "uint256",
          "name": "txId",
          "type": "uint256"
        },
        {
          "indexed": false,
          "internalType": "address",
          "name": "recipient",
          "type": "address"
        },
        {
          "indexed": false,
          "internalType": "uint256",
          "name": "amount",
          "type": "uint256"
        }
      ],
      "name": "TransactionExecuted",
      "type": "event"
    },
    {
      "inputs": [
        {
          "internalType": "uint256",
          "name": "_id",
          "type": "uint256"
        },
        {
          "internalType": "string",
          "name": "_updateMessage",
          "type": "string"
        }
      ],
      "name": "addCampaignUpdate",
      "outputs": [],
      "stateMutability": "nonpayable",
      "type": "function"
    },
    {
      "inputs": [
        {
          "internalType": "address",
          "name": "",
          "type": "address"
        }
      ],
      "name": "admins",
      "outputs": [
        {
          "internalType": "bool",
          "name": "",
          "type": "bool"
        }
      ],
      "stateMutability": "view",
      "type": "function"
    },
    {
      "inputs": [
        {
          "internalType": "uint256",
          "name": "_txId",
          "type": "uint256"
        }
      ],
      "name": "approveTransaction",
      "outputs": [],
      "stateMutability": "nonpayable",
      "type": "function"
    },
    {
      "inputs": [
        {
          "internalType": "uint256",
          "name": "",
          "type": "uint256"
        },
        {
          "internalType": "address",
          "name": "",
          "type": "address"
        }
      ],
      "name": "approvedSignatures",
      "outputs": [
        {
          "internalType": "bool",
          "name": "",
          "type": "bool"
        }
      ],
      "stateMutability": "view",
      "type": "function"
    },
    {
      "inputs": [
        {
          "internalType": "uint256",
          "name": "",
          "type": "uint256"
        }
      ],
      "name": "campaigns",
      "outputs": [
        {
          "internalType": "uint256",
          "name": "id",
          "type": "uint256"
        },
        {
          "internalType": "address",
          "name": "creator",
          "type": "address"
        },
        {
          "internalType": "string",
          "name": "title",
          "type": "string"
        },
        {
          "internalType": "string",
          "name": "description",
          "type": "string"
        },
        {
          "internalType": "uint256",
          "name": "targetAmount",
          "type": "uint256"
        },
        {
          "internalType": "uint256",
          "name": "totalDonated",
          "type": "uint256"
        },
        {
          "internalType": "bool",
          "name": "active",
          "type": "bool"
        }
      ],
      "stateMutability": "view",
      "type": "function"
    },
    {
      "inputs": [],
      "name": "contractOwner",
      "outputs": [
        {
          "internalType": "address",
          "name": "",
          "type": "address"
        }
      ],
      "stateMutability": "view",
      "type": "function"
    },
    {
      "inputs": [],
      "name": "contributorNFT",
      "outputs": [
        {
          "internalType": "contract ContributorNFT",
          "name": "",
          "type": "address"
        }
      ],
      "stateMutability": "view",
      "type": "function"
    },
    {
      "inputs": [
        {
          "internalType": "string",
          "name": "_title",
          "type": "string"
        },
        {
          "internalType": "string",
          "name": "_description",
          "type": "string"
        },
        {
          "internalType": "uint256",
          "name": "_targetAmount",
          "type": "uint256"
        }
      ],
      "name": "createCampaign",
      "outputs": [],
      "stateMutability": "nonpayable",
      "type": "function"
    },
    {
      "inputs": [
        {
          "internalType": "uint256",
          "name": "_id",
          "type": "uint256"
        }
      ],
      "name": "donateToCampaign",
      "outputs": [],
      "stateMutability": "payable",
      "type": "function"
    },
    {
      "inputs": [
        {
          "internalType": "uint256",
          "name": "",
          "type": "uint256"
        },
        {
          "internalType": "uint256",
          "name": "",
          "type": "uint256"
        }
      ],
      "name": "donations",
      "outputs": [
        {
          "internalType": "address",
          "name": "donor",
          "type": "address"
        },
        {
          "internalType": "uint256",
          "name": "amount",
          "type": "uint256"
        },
        {
          "internalType": "uint256",
          "name": "timestamp",
          "type": "uint256"
        }
      ],
      "stateMutability": "view",
      "type": "function"
    },
    {
      "inputs": [
        {
          "internalType": "uint256",
          "name": "_id",
          "type": "uint256"
        }
      ],
      "name": "getCampaignUpdates",
      "outputs": [
        {
          "internalType": "string[]",
          "name": "",
          "type": "string[]"
        }
      ],
      "stateMutability": "view",
      "type": "function"
    },
    {
      "inputs": [
        {
          "internalType": "uint256",
          "name": "_id",
          "type": "uint256"
        }
      ],
      "name": "getDonationHistory",
      "outputs": [
        {
          "components": [
            {
              "internalType": "address",
              "name": "donor",
              "type": "address"
            },
            {
              "internalType": "uint256",
              "name": "amount",
              "type": "uint256"
            },
            {
              "internalType": "uint256",
              "name": "timestamp",
              "type": "uint256"
            }
          ],
          "internalType": "struct CampaignDonation.Donation[]",
          "name": "",
          "type": "tuple[]"
        }
      ],
      "stateMutability": "view",
      "type": "function"
    },
    {
      "inputs": [],
      "name": "requiredSignatures",
      "outputs": [
        {
          "internalType": "uint256",
          "name": "",
          "type": "uint256"
        }
      ],
      "stateMutability": "view",
      "type": "function"
    },
    {
      "inputs": [
        {
          "internalType": "uint256",
          "name": "_campaignId",
          "type": "uint256"
        }
      ],
      "name": "rewardTopContributors",
      "outputs": [],
      "stateMutability": "nonpayable",
      "type": "function"
    },
    {
      "inputs": [
        {
          "internalType": "address",
          "name": "",
          "type": "address"
        }
      ],
      "name": "signers",
      "outputs": [
        {
          "internalType": "bool",
          "name": "",
          "type": "bool"
        }
      ],
      "stateMutability": "view",
      "type": "function"
    },
    {
      "inputs": [],
      "name": "transactionCount",
      "outputs": [
        {
          "internalType": "uint256",
          "name": "",
          "type": "uint256"
        }
      ],
      "stateMutability": "view",
      "type": "function"
    },
    {
      "inputs": [
        {
          "internalType": "uint256",
          "name": "",
          "type": "uint256"
        }
      ],
      "name": "transactions",
      "outputs": [
        {
          "internalType": "uint256",
          "name": "amount",
          "type": "uint256"
        },
        {
          "internalType": "address payable",
          "name": "recipient",
          "type": "address"
        },
        {
          "internalType": "bool",
          "name": "executed",
          "type": "bool"
        },
        {
          "internalType": "uint256",
          "name": "approvals",
          "type": "uint256"
        }
      ],
      "stateMutability": "view",
      "type": "function"
    },
    {
      "inputs": [
        {
          "internalType": "uint256",
          "name": "_id",
          "type": "uint256"
        },
        {
          "internalType": "bool",
          "name": "_active",
          "type": "bool"
        }
      ],
      "name": "updateCampaignStatus",
      "outputs": [],
      "stateMutability": "nonpayable",
      "type": "function"
    },
    {
      "inputs": [
        {
          "internalType": "uint256",
          "name": "_campaignId",
          "type": "uint256"
        },
        {
          "internalType": "uint256",
          "name": "_amount",
          "type": "uint256"
        },
        {
          "internalType": "address payable",
          "name": "_recipient",
          "type": "address"
        }
      ],
      "name": "withdrawFunds",
      "outputs": [],
      "stateMutability": "nonpayable",
      "type": "function"
    }
  ],
  "bytecode": "0x60806040523480156200001157600080fd5b50604051620040ea380380620040ea8339818101604052810190620000379190620004b1565b600082116200007d576040517f08c379a00000000000000000000000000000000000000000000000000000000081526004016200007490620005e8565b60405180910390fd5b8183511015620000c4576040517f08c379a0000000000000000000000000000000000000000000000000000000008152600401620000bb906200065a565b60405180910390fd5b60005b84518110156200015c57600160036000878481518110620000ed57620000ec6200067c565b5b602002602001015173ffffffffffffffffffffffffffffffffffffffff1673ffffffffffffffffffffffffffffffffffffffff16815260200190815260200160002060006101000a81548160ff02191690831515021790555080806200015390620006da565b915050620000c7565b5060005b8351811015620001f5576001600460008684815181106200018657620001856200067c565b5b602002602001015173ffffffffffffffffffffffffffffffffffffffff1673ffffffffffffffffffffffffffffffffffffffff16815260200190815260200160002060006101000a81548160ff0219169083151502179055508080620001ec90620006da565b91505062000160565b50336000806101000a81548173ffffffffffffffffffffffffffffffffffffffff021916908373ffffffffffffffffffffffffffffffffffffffff1602179055508160068190555080600960006101000a81548173ffffffffffffffffffffffffffffffffffffffff021916908373ffffffffffffffffffffffffffffffffffffffff1602179055505050505062000727565b6000604051905090565b600080fd5b600080fd5b600080fd5b6000601f19601f8301169050919050565b7f4e487b7100000000000000000000000000000000000000000000000000000000600052604160045260246000fd5b620002ec82620002a1565b810181811067ffffffffffffffff821117156200030e576200030d620002b2565b5b80604052505050565b60006200032362000288565b9050620003318282620002e1565b919050565b600067ffffffffffffffff821115620003545762000353620002b2565b5b602082029050602081019050919050565b600080fd5b600073ffffffffffffffffffffffffffffffffffffffff82169050919050565b600062000397826200036a565b9050919050565b620003a9816200038a565b8114620003b557600080fd5b50565b600081519050620003c9816200039e565b92915050565b6000620003e6620003e08462000336565b62000317565b905080838252602082019050602084028301858111156200040c576200040b62000365565b5b835b81811015620004395780620004248882620003b8565b8452602084019350506020810190506200040e565b5050509392505050565b600082601f8301126200045b576200045a6200029c565b5b81516200046d848260208601620003cf565b91505092915050565b6000819050919050565b6200048b8162000476565b81146200049757600080fd5b50565b600081519050620004ab8162000480565b92915050565b60008060008060808587031215620004ce57620004cd62000292565b5b600085015167ffffffffffffffff811115620004ef57620004ee62000297565b5b620004fd8782880162000443565b945050602085015167ffffffffffffffff81111562000521576200052062000297565b5b6200052f8782880162000443565b935050604062000542878288016200049a565b92505060606200055587828801620003b8565b91505092959194509250565b600082825260208201905092915050565b7f5369676e617475726573207265717569726564206d757374206265206772656160008201527f746572207468616e203000000000000000000000000000000000000000000000602082015250565b6000620005d0602a8362000561565b9150620005dd8262000572565b604082019050919050565b600060208201905081810360008301526200060381620005c1565b9050919050565b7f4e6f7420656e6f756768207369676e6572730000000000000000000000000000600082015250565b60006200064260128362000561565b91506200064f826200060a565b602082019050919050565b60006020820190508181036000830152620006758162000633565b9050919050565b7f4e487b7100000000000000000000000000000000000000000000000000000000600052603260045260246000fd5b7f4e487b7100000000000000000000000000000000000000000000000000000000600052601160045260246000fd5b6000620006e78262000476565b91507fffffffffffffffffffffffffffffffffffffffffffffffffffffffffffffffff82036200071c576200071b620006ab565b5b600182019050919050565b6139b380620007376000396000f3fe6080604052600436106101145760003560e01c806357f4ec3d116100a05780639ee8a91c116100645780639ee8a91c146103e5578063afb050cd1461040e578063b77bf6001461044b578063ce606ee014610476578063ffa56a57146104a157610114565b806357f4ec3d146102e95780636e31500c14610314578063736c0d5b1461033d5780638d0680431461037a5780639ace38c2146103a557610114565b806330c56805116100e757806330c56805146101ff5780633e61faf414610228578063429b62e51461025157806342a4fda81461028e57806348f7b12e146102aa57610114565b806303cae22814610119578063141961bc14610156578063242232d1146101995780632869a6e6146101c2575b600080fd5b34801561012557600080fd5b50610140600480360381019061013b9190612355565b6104ca565b60405161014d91906123b0565b60405180910390f35b34801561016257600080fd5b5061017d600480360381019061017891906123cb565b6104f9565b60405161019097969594939291906124a6565b60405180910390f35b3480156101a557600080fd5b506101c060048036038101906101bb91906123cb565b610688565b005b3480156101ce57600080fd5b506101e960048036038101906101e491906123cb565b6109d8565b6040516101f69190612632565b60405180910390f35b34801561020b57600080fd5b5061022660048036038101906102219190612680565b610afd565b005b34801561023457600080fd5b5061024f600480360381019061024a91906123cb565b610ca9565b005b34801561025d57600080fd5b50610278600480360381019061027391906126c0565b610f19565b60405161028591906123b0565b60405180910390f35b6102a860048036038101906102a391906123cb565b610f39565b005b3480156102b657600080fd5b506102d160048036038101906102cc91906126ed565b611160565b6040516102e09392919061272d565b60405180910390f35b3480156102f557600080fd5b506102fe6111c7565b60405161030b91906127c3565b60405180910390f35b34801561032057600080fd5b5061033b60048036038101906103369190612913565b6111ed565b005b34801561034957600080fd5b50610364600480360381019061035f91906126c0565b6113ae565b60405161037191906123b0565b60405180910390f35b34801561038657600080fd5b5061038f6113ce565b60405161039c919061296f565b60405180910390f35b3480156103b157600080fd5b506103cc60048036038101906103c791906123cb565b6113d4565b6040516103dc94939291906129ab565b60405180910390f35b3480156103f157600080fd5b5061040c60048036038101906104079190612a1c565b611431565b005b34801561041a57600080fd5b50610435600480360381019061043091906123cb565b61169c565b6040516104429190612b7b565b60405180910390f35b34801561045757600080fd5b506104606117e3565b60405161046d919061296f565b60405180910390f35b34801561048257600080fd5b5061048b6117e9565b6040516104989190612b9d565b60405180910390f35b3480156104ad57600080fd5b506104c860048036038101906104c39190612bb8565b61180d565b005b60056020528160005260406000206020528060005260406000206000915091509054906101000a900460ff1681565b6001818154811061050957600080fd5b90600052602060002090600802016000915090508060000154908060010160009054906101000a900473ffffffffffffffffffffffffffffffffffffffff169080600201805461055890612c72565b80601f016020809104026020016040519081016040528092919081815260200182805461058490612c72565b80156105d15780601f106105a6576101008083540402835291602001916105d1565b820191906000526020600020905b8154815290600101906020018083116105b457829003601f168201915b5050505050908060030180546105e690612c72565b80601f016020809104026020016040519081016040528092919081815260200182805461061290612c72565b801561065f5780601f106106345761010080835404028352916020019161065f565b820191906000526020600020905b81548152906001019060200180831161064257829003601f168201915b5050505050908060040154908060050154908060060160009054906101000a900460ff16905087565b600460003373ffffffffffffffffffffffffffffffffffffffff1673ffffffffffffffffffffffffffffffffffffffff16815260200190815260200160002060009054906101000a900460ff16610714576040517f08c379a000000000000000000000000000000000000000000000000000000000815260040161070b90612cef565b60405180910390fd5b60006007600083815260200190815260200160002090508060010160149054906101000a900460ff161561077d576040517f08c379a000000000000000000000000000000000000000000000000000000000815260040161077490612d5b565b60405180910390fd5b6005600083815260200190815260200160002060003373ffffffffffffffffffffffffffffffffffffffff1673ffffffffffffffffffffffffffffffffffffffff16815260200190815260200160002060009054906101000a900460ff161561081b576040517f08c379a000000000000000000000000000000000000000000000000000000000815260040161081290612ded565b60405180910390fd5b60016005600084815260200190815260200160002060003373ffffffffffffffffffffffffffffffffffffffff1673ffffffffffffffffffffffffffffffffffffffff16815260200190815260200160002060006101000a81548160ff02191690831515021790555080600201600081548092919061089990612e3c565b91905055507f924813d717e221b5f46dcd8a56da1679e4612584ab3237d55e5faabf6f6a307982336040516108cf929190612e84565b60405180910390a16006548160020154106109d45760018160010160146101000a81548160ff0219169083151502179055508060010160009054906101000a900473ffffffffffffffffffffffffffffffffffffffff1673ffffffffffffffffffffffffffffffffffffffff166108fc82600001549081150290604051600060405180830381858888f1935050505015801561096f573d6000803e3d6000fd5b507fda19024f6708ce28e75d9c0ec389fb05a8e5cc9dfe520f61239c10d51a11e59c828260010160009054906101000a900473ffffffffffffffffffffffffffffffffffffffff1683600001546040516109cb93929190612ece565b60405180910390a15b5050565b6060816001805490508110610a22576040517f08c379a0000000000000000000000000000000000000000000000000000000008152600401610a1990612f51565b60405180910390fd5b60026000848152602001908152602001600020805480602002602001604051908101604052809291908181526020016000905b82821015610af157838290600052602060002090600302016040518060600160405290816000820160009054906101000a900473ffffffffffffffffffffffffffffffffffffffff1673ffffffffffffffffffffffffffffffffffffffff1673ffffffffffffffffffffffffffffffffffffffff1681526020016001820154815260200160028201548152505081526020019060010190610a55565b50505050915050919050565b816001805490508110610b45576040517f08c379a0000000000000000000000000000000000000000000000000000000008152600401610b3c90612f51565b60405180910390fd5b600360003373ffffffffffffffffffffffffffffffffffffffff1673ffffffffffffffffffffffffffffffffffffffff16815260200190815260200160002060009054906101000a900460ff16610bd1576040517f08c379a0000000000000000000000000000000000000000000000000000000008152600401610bc890612fbd565b60405180910390fd5b600060018481548110610be757610be6612fdd565b5b906000526020600020906008020190508215158160060160009054906101000a900460ff16151503610c4e576040517f08c379a0000000000000000000000000000000000000000000000000000000008152600401610c459061307e565b60405180910390fd5b828160060160006101000a81548160ff0219169083151502179055507f12669804a7330b3aae37125eb1992ac6ea2995179aff8b791ccdaf8232144f838484604051610c9b92919061309e565b60405180910390a150505050565b600360003373ffffffffffffffffffffffffffffffffffffffff1673ffffffffffffffffffffffffffffffffffffffff16815260200190815260200160002060009054906101000a900460ff16610d35576040517f08c379a0000000000000000000000000000000000000000000000000000000008152600401610d2c90612fbd565b60405180910390fd5b806001805490508110610d7d576040517f08c379a0000000000000000000000000000000000000000000000000000000008152600401610d7490612f51565b60405180910390fd5b6000610d8883611ad6565b905060005b8151811015610eda57600073ffffffffffffffffffffffffffffffffffffffff16828281518110610dc157610dc0612fdd565b5b602002602001015173ffffffffffffffffffffffffffffffffffffffff1614610ec7576000610dfb600183610df691906130c7565b612076565b604051602001610e0b9190613183565b6040516020818303038152906040529050600960009054906101000a900473ffffffffffffffffffffffffffffffffffffffff1673ffffffffffffffffffffffffffffffffffffffff1663eacabe14848481518110610e6d57610e6c612fdd565b5b6020026020010151836040518363ffffffff1660e01b8152600401610e939291906131a5565b600060405180830381600087803b158015610ead57600080fd5b505af1158015610ec1573d6000803e3d6000fd5b50505050505b8080610ed290612e3c565b915050610d8d565b507fa16dfea5a0ec13157ea67d7ffb1a95f38902c4a71cbbcbd039d4224a4949146f8382604051610f0c929190613284565b60405180910390a1505050565b60036020528060005260406000206000915054906101000a900460ff1681565b806001805490508110610f81576040517f08c379a0000000000000000000000000000000000000000000000000000000008152600401610f7890612f51565b60405180910390fd5b60003411610fc4576040517f08c379a0000000000000000000000000000000000000000000000000000000008152600401610fbb90613326565b60405180910390fd5b600060018381548110610fda57610fd9612fdd565b5b906000526020600020906008020190508060060160009054906101000a900460ff1661103b576040517f08c379a0000000000000000000000000000000000000000000000000000000008152600401611032906133b8565b60405180910390fd5b3481600501600082825461104f91906130c7565b925050819055506002600084815260200190815260200160002060405180606001604052803373ffffffffffffffffffffffffffffffffffffffff16815260200134815260200142815250908060018154018082558091505060019003906000526020600020906003020160009091909190915060008201518160000160006101000a81548173ffffffffffffffffffffffffffffffffffffffff021916908373ffffffffffffffffffffffffffffffffffffffff160217905550602082015181600101556040820151816002015550507f0b5b4c52969ff7329ecf7ee536409fda87812b15a8622bc6e8cdeab3aee14a26833334604051611153939291906133d8565b60405180910390a1505050565b6002602052816000526040600020818154811061117c57600080fd5b9060005260206000209060030201600091509150508060000160009054906101000a900473ffffffffffffffffffffffffffffffffffffffff16908060010154908060020154905083565b600960009054906101000a900473ffffffffffffffffffffffffffffffffffffffff1681565b816001805490508110611235576040517f08c379a000000000000000000000000000000000000000000000000000000000815260040161122c90612f51565b60405180910390fd5b600360003373ffffffffffffffffffffffffffffffffffffffff1673ffffffffffffffffffffffffffffffffffffffff16815260200190815260200160002060009054906101000a900460ff166112c1576040517f08c379a00000000000000000000000000000000000000000000000000000000081526004016112b890612fbd565b60405180910390fd5b6000600184815481106112d7576112d6612fdd565b5b906000526020600020906008020190508060060160009054906101000a900460ff16611338576040517f08c379a000000000000000000000000000000000000000000000000000000000815260040161132f90613481565b60405180910390fd5b806007018390806001815401808255809150506001900390600052602060002001600090919091909150908161136e9190613643565b507f7a9a4f151cc0b6349bd7062416b8f68d1d73c3f457efc221520eb5547595d2d884846040516113a0929190613715565b60405180910390a150505050565b60046020528060005260406000206000915054906101000a900460ff1681565b60065481565b60076020528060005260406000206000915090508060000154908060010160009054906101000a900473ffffffffffffffffffffffffffffffffffffffff16908060010160149054906101000a900460ff16908060020154905084565b600460003373ffffffffffffffffffffffffffffffffffffffff1673ffffffffffffffffffffffffffffffffffffffff16815260200190815260200160002060009054906101000a900460ff166114bd576040517f08c379a00000000000000000000000000000000000000000000000000000000081526004016114b490612cef565b60405180910390fd5b826001805490508110611505576040517f08c379a00000000000000000000000000000000000000000000000000000000081526004016114fc90612f51565b60405180910390fd5b60006001858154811061151b5761151a612fdd565b5b906000526020600020906008020190508381600501541015611572576040517f08c379a000000000000000000000000000000000000000000000000000000000815260040161156990613791565b60405180910390fd5b6008600081548092919061158590612e3c565b919050555060405180608001604052808581526020018473ffffffffffffffffffffffffffffffffffffffff16815260200160001515815260200160008152506007600060085481526020019081526020016000206000820151816000015560208201518160010160006101000a81548173ffffffffffffffffffffffffffffffffffffffff021916908373ffffffffffffffffffffffffffffffffffffffff16021790555060408201518160010160146101000a81548160ff021916908315150217905550606082015181600201559050507ffd27d176b6ebb21e0182c0e43df5818e0d632867e1eb47c383c58d221205fce3600854848660405161168d93929190612ece565b60405180910390a15050505050565b60608160018054905081106116e6576040517f08c379a00000000000000000000000000000000000000000000000000000000081526004016116dd90612f51565b60405180910390fd5b600183815481106116fa576116f9612fdd565b5b9060005260206000209060080201600701805480602002602001604051908101604052809291908181526020016000905b828210156117d757838290600052602060002001805461174a90612c72565b80601f016020809104026020016040519081016040528092919081815260200182805461177690612c72565b80156117c35780601f10611798576101008083540402835291602001916117c3565b820191906000526020600020905b8154815290600101906020018083116117a657829003601f168201915b50505050508152602001906001019061172b565b50505050915050919050565b60085481565b60008054906101000a900473ffffffffffffffffffffffffffffffffffffffff1681565b600360003373ffffffffffffffffffffffffffffffffffffffff1673ffffffffffffffffffffffffffffffffffffffff16815260200190815260200160002060009054906101000a900460ff16611899576040517f08c379a000000000000000000000000000000000000000000000000000000000815260040161189090612fbd565b60405180910390fd5b600081116118dc576040517f08c379a00000000000000000000000000000000000000000000000000000000081526004016118d390613823565b60405180910390fd5b600060405180610100016040528060018054905081526020013373ffffffffffffffffffffffffffffffffffffffff16815260200185815260200184815260200183815260200160008152602001600115158152602001600067ffffffffffffffff81111561194e5761194d6127e8565b5b60405190808252806020026020018201604052801561198157816020015b606081526020019060019003908161196c5790505b50815250905060018190806001815401808255809150506001900390600052602060002090600802016000909190919091506000820151816000015560208201518160010160006101000a81548173ffffffffffffffffffffffffffffffffffffffff021916908373ffffffffffffffffffffffffffffffffffffffff1602179055506040820151816002019081611a199190613643565b506060820151816003019081611a2f9190613643565b506080820151816004015560a0820151816005015560c08201518160060160006101000a81548160ff02191690831515021790555060e0820151816007019080519060200190611a809291906121d3565b5050507f825fb10f7650ed27414d6f86acdf7d5946927d9b25001f045f1a2435deec02fe60018080549050611ab59190613843565b338685604051611ac89493929190613877565b60405180910390a150505050565b6060600060026000848152602001908152602001600020805480602002602001604051908101604052809291908181526020016000905b82821015611ba957838290600052602060002090600302016040518060600160405290816000820160009054906101000a900473ffffffffffffffffffffffffffffffffffffffff1673ffffffffffffffffffffffffffffffffffffffff1673ffffffffffffffffffffffffffffffffffffffff1681526020016001820154815260200160028201548152505081526020019060010190611b0d565b5050505090506000600367ffffffffffffffff811115611bcc57611bcb6127e8565b5b604051908082528060200260200182016040528015611bfa5781602001602082028036833780820191505090505b5090506000600367ffffffffffffffff811115611c1a57611c196127e8565b5b604051908082528060200260200182016040528015611c485781602001602082028036833780820191505090505b50905060005b835181101561206a576000848281518110611c6c57611c6b612fdd565b5b60200260200101516000015190506000858381518110611c8f57611c8e612fdd565b5b602002602001015160200151905083600081518110611cb157611cb0612fdd565b5b6020026020010151811115611e815783600181518110611cd457611cd3612fdd565b5b602002602001015184600281518110611cf057611cef612fdd565b5b60200260200101818152505084600181518110611d1057611d0f612fdd565b5b602002602001015185600281518110611d2c57611d2b612fdd565b5b602002602001019073ffffffffffffffffffffffffffffffffffffffff16908173ffffffffffffffffffffffffffffffffffffffff168152505083600081518110611d7a57611d79612fdd565b5b602002602001015184600181518110611d9657611d95612fdd565b5b60200260200101818152505084600081518110611db657611db5612fdd565b5b602002602001015185600181518110611dd257611dd1612fdd565b5b602002602001019073ffffffffffffffffffffffffffffffffffffffff16908173ffffffffffffffffffffffffffffffffffffffff16815250508084600081518110611e2157611e20612fdd565b5b6020026020010181815250508185600081518110611e4257611e41612fdd565b5b602002602001019073ffffffffffffffffffffffffffffffffffffffff16908173ffffffffffffffffffffffffffffffffffffffff1681525050612055565b83600181518110611e9557611e94612fdd565b5b6020026020010151811115611fbf5783600181518110611eb857611eb7612fdd565b5b602002602001015184600281518110611ed457611ed3612fdd565b5b60200260200101818152505084600181518110611ef457611ef3612fdd565b5b602002602001015185600281518110611f1057611f0f612fdd565b5b602002602001019073ffffffffffffffffffffffffffffffffffffffff16908173ffffffffffffffffffffffffffffffffffffffff16815250508084600181518110611f5f57611f5e612fdd565b5b6020026020010181815250508185600181518110611f8057611f7f612fdd565b5b602002602001019073ffffffffffffffffffffffffffffffffffffffff16908173ffffffffffffffffffffffffffffffffffffffff1681525050612054565b83600281518110611fd357611fd2612fdd565b5b6020026020010151811115612053578084600281518110611ff757611ff6612fdd565b5b602002602001018181525050818560028151811061201857612017612fdd565b5b602002602001019073ffffffffffffffffffffffffffffffffffffffff16908173ffffffffffffffffffffffffffffffffffffffff16815250505b5b5b5050808061206290612e3c565b915050611c4e565b50819350505050919050565b6060600082036120bd576040518060400160405280600181526020017f300000000000000000000000000000000000000000000000000000000000000081525090506121ce565b600082905060005b600082146120ef5780806120d890612e3c565b915050600a826120e891906138f2565b91506120c5565b60008167ffffffffffffffff81111561210b5761210a6127e8565b5b6040519080825280601f01601f19166020018201604052801561213d5781602001600182028036833780820191505090505b5090505b600085146121c757600a856121569190613923565b603061216291906130c7565b60f81b818361217090613954565b9350838151811061218457612183612fdd565b5b60200101907effffffffffffffffffffffffffffffffffffffffffffffffffffffffffffff1916908160001a905350600a856121c091906138f2565b9450612141565b8093505050505b919050565b82805482825590600052602060002090810192821561221b579160200282015b8281111561221a57825182908161220a9190613643565b50916020019190600101906121f3565b5b509050612228919061222c565b5090565b5b8082111561224c57600081816122439190612250565b5060010161222d565b5090565b50805461225c90612c72565b6000825580601f1061226e575061228d565b601f01602090049060005260206000209081019061228c9190612290565b5b50565b5b808211156122a9576000816000905550600101612291565b5090565b6000604051905090565b600080fd5b600080fd5b6000819050919050565b6122d4816122c1565b81146122df57600080fd5b50565b6000813590506122f1816122cb565b92915050565b600073ffffffffffffffffffffffffffffffffffffffff82169050919050565b6000612322826122f7565b9050919050565b61233281612317565b811461233d57600080fd5b50565b60008135905061234f81612329565b92915050565b6000806040838503121561236c5761236b6122b7565b5b600061237a858286016122e2565b925050602061238b85828601612340565b9150509250929050565b60008115159050919050565b6123aa81612395565b82525050565b60006020820190506123c560008301846123a1565b92915050565b6000602082840312156123e1576123e06122b7565b5b60006123ef848285016122e2565b91505092915050565b612401816122c1565b82525050565b61241081612317565b82525050565b600081519050919050565b600082825260208201905092915050565b60005b83811015612450578082015181840152602081019050612435565b60008484015250505050565b6000601f19601f8301169050919050565b600061247882612416565b6124828185612421565b9350612492818560208601612432565b61249b8161245c565b840191505092915050565b600060e0820190506124bb600083018a6123f8565b6124c86020830189612407565b81810360408301526124da818861246d565b905081810360608301526124ee818761246d565b90506124fd60808301866123f8565b61250a60a08301856123f8565b61251760c08301846123a1565b98975050505050505050565b600081519050919050565b600082825260208201905092915050565b6000819050602082019050919050565b61255881612317565b82525050565b612567816122c1565b82525050565b606082016000820151612583600085018261254f565b506020820151612596602085018261255e565b5060408201516125a9604085018261255e565b50505050565b60006125bb838361256d565b60608301905092915050565b6000602082019050919050565b60006125df82612523565b6125e9818561252e565b93506125f48361253f565b8060005b8381101561262557815161260c88826125af565b9750612617836125c7565b9250506001810190506125f8565b5085935050505092915050565b6000602082019050818103600083015261264c81846125d4565b905092915050565b61265d81612395565b811461266857600080fd5b50565b60008135905061267a81612654565b92915050565b60008060408385031215612697576126966122b7565b5b60006126a5858286016122e2565b92505060206126b68582860161266b565b9150509250929050565b6000602082840312156126d6576126d56122b7565b5b60006126e484828501612340565b91505092915050565b60008060408385031215612704576127036122b7565b5b6000612712858286016122e2565b9250506020612723858286016122e2565b9150509250929050565b60006060820190506127426000830186612407565b61274f60208301856123f8565b61275c60408301846123f8565b949350505050565b6000819050919050565b600061278961278461277f846122f7565b612764565b6122f7565b9050919050565b600061279b8261276e565b9050919050565b60006127ad82612790565b9050919050565b6127bd816127a2565b82525050565b60006020820190506127d860008301846127b4565b92915050565b600080fd5b600080fd5b7f4e487b7100000000000000000000000000000000000000000000000000000000600052604160045260246000fd5b6128208261245c565b810181811067ffffffffffffffff8211171561283f5761283e6127e8565b5b80604052505050565b60006128526122ad565b905061285e8282612817565b919050565b600067ffffffffffffffff82111561287e5761287d6127e8565b5b6128878261245c565b9050602081019050919050565b82818337600083830152505050565b60006128b66128b184612863565b612848565b9050828152602081018484840111156128d2576128d16127e3565b5b6128dd848285612894565b509392505050565b600082601f8301126128fa576128f96127de565b5b813561290a8482602086016128a3565b91505092915050565b6000806040838503121561292a576129296122b7565b5b6000612938858286016122e2565b925050602083013567ffffffffffffffff811115612959576129586122bc565b5b612965858286016128e5565b9150509250929050565b600060208201905061298460008301846123f8565b92915050565b6000612995826122f7565b9050919050565b6129a58161298a565b82525050565b60006080820190506129c060008301876123f8565b6129cd602083018661299c565b6129da60408301856123a1565b6129e760608301846123f8565b95945050505050565b6129f98161298a565b8114612a0457600080fd5b50565b600081359050612a16816129f0565b92915050565b600080600060608486031215612a3557612a346122b7565b5b6000612a43868287016122e2565b9350506020612a54868287016122e2565b9250506040612a6586828701612a07565b9150509250925092565b600081519050919050565b600082825260208201905092915050565b6000819050602082019050919050565b600082825260208201905092915050565b6000612ab782612416565b612ac18185612a9b565b9350612ad1818560208601612432565b612ada8161245c565b840191505092915050565b6000612af18383612aac565b905092915050565b6000602082019050919050565b6000612b1182612a6f565b612b1b8185612a7a565b935083602082028501612b2d85612a8b565b8060005b85811015612b695784840389528151612b4a8582612ae5565b9450612b5583612af9565b925060208a01995050600181019050612b31565b50829750879550505050505092915050565b60006020820190508181036000830152612b958184612b06565b905092915050565b6000602082019050612bb26000830184612407565b92915050565b600080600060608486031215612bd157612bd06122b7565b5b600084013567ffffffffffffffff811115612bef57612bee6122bc565b5b612bfb868287016128e5565b935050602084013567ffffffffffffffff811115612c1c57612c1b6122bc565b5b612c28868287016128e5565b9250506040612c39868287016122e2565b9150509250925092565b7f4e487b7100000000000000000000000000000000000000000000000000000000600052602260045260246000fd5b60006002820490506001821680612c8a57607f821691505b602082108103612c9d57612c9c612c43565b5b50919050565b7f4e6f742061207369676e65720000000000000000000000000000000000000000600082015250565b6000612cd9600c83612421565b9150612ce482612ca3565b602082019050919050565b60006020820190508181036000830152612d0881612ccc565b9050919050565b7f5472616e73616374696f6e20616c726561647920657865637574656400000000600082015250565b6000612d45601c83612421565b9150612d5082612d0f565b602082019050919050565b60006020820190508181036000830152612d7481612d38565b9050919050565b7f5472616e73616374696f6e20616c726561647920617070726f7665642062792060008201527f74686973207369676e6572000000000000000000000000000000000000000000602082015250565b6000612dd7602b83612421565b9150612de282612d7b565b604082019050919050565b60006020820190508181036000830152612e0681612dca565b9050919050565b7f4e487b7100000000000000000000000000000000000000000000000000000000600052601160045260246000fd5b6000612e47826122c1565b91507fffffffffffffffffffffffffffffffffffffffffffffffffffffffffffffffff8203612e7957612e78612e0d565b5b600182019050919050565b6000604082019050612e9960008301856123f8565b612ea66020830184612407565b9392505050565b6000612eb882612790565b9050919050565b612ec881612ead565b82525050565b6000606082019050612ee360008301866123f8565b612ef06020830185612ebf565b612efd60408301846123f8565b949350505050565b7f43616d706169676e20646f6573206e6f74206578697374000000000000000000600082015250565b6000612f3b601783612421565b9150612f4682612f05565b602082019050919050565b60006020820190508181036000830152612f6a81612f2e565b9050919050565b7f4e6f7420616e2061646d696e0000000000000000000000000000000000000000600082015250565b6000612fa7600c83612421565b9150612fb282612f71565b602082019050919050565b60006020820190508181036000830152612fd681612f9a565b9050919050565b7f4e487b7100000000000000000000000000000000000000000000000000000000600052603260045260246000fd5b7f43616d706169676e20697320616c726561647920696e2074686973207374617460008201527f6500000000000000000000000000000000000000000000000000000000000000602082015250565b6000613068602183612421565b91506130738261300c565b604082019050919050565b600060208201905081810360008301526130978161305b565b9050919050565b60006040820190506130b360008301856123f8565b6130c060208301846123a1565b9392505050565b60006130d2826122c1565b91506130dd836122c1565b92508282019050808211156130f5576130f4612e0d565b5b92915050565b600081905092915050565b7f68747470733a2f2f6578616d706c652e636f6d2f6d657461646174612f000000600082015250565b600061313c601d836130fb565b915061314782613106565b601d82019050919050565b600061315d82612416565b61316781856130fb565b9350613177818560208601612432565b80840191505092915050565b600061318e8261312f565b915061319a8284613152565b915081905092915050565b60006040820190506131ba6000830185612407565b81810360208301526131cc818461246d565b90509392505050565b600081519050919050565b600082825260208201905092915050565b6000819050602082019050919050565b600061320d838361254f565b60208301905092915050565b6000602082019050919050565b6000613231826131d5565b61323b81856131e0565b9350613246836131f1565b8060005b8381101561327757815161325e8882613201565b975061326983613219565b92505060018101905061324a565b5085935050505092915050565b600060408201905061329960008301856123f8565b81810360208301526132ab8184613226565b90509392505050565b7f446f6e6174696f6e20616d6f756e74206d75737420626520677265617465722060008201527f7468616e207a65726f0000000000000000000000000000000000000000000000602082015250565b6000613310602983612421565b915061331b826132b4565b604082019050919050565b6000602082019050818103600083015261333f81613303565b9050919050565b7f43616e6e6f7420646f6e61746520746f20616e20696e6163746976652063616d60008201527f706169676e000000000000000000000000000000000000000000000000000000602082015250565b60006133a2602583612421565b91506133ad82613346565b604082019050919050565b600060208201905081810360008301526133d181613395565b9050919050565b60006060820190506133ed60008301866123f8565b6133fa6020830185612407565b61340760408301846123f8565b949350505050565b7f43616e6e6f742075706461746520616e20696e6163746976652063616d70616960008201527f676e000000000000000000000000000000000000000000000000000000000000602082015250565b600061346b602283612421565b91506134768261340f565b604082019050919050565b6000602082019050818103600083015261349a8161345e565b9050919050565b60008190508160005260206000209050919050565b60006020601f8301049050919050565b600082821b905092915050565b6000600883026135037fffffffffffffffffffffffffffffffffffffffffffffffffffffffffffffffff826134c6565b61350d86836134c6565b95508019841693508086168417925050509392505050565b600061354061353b613536846122c1565b612764565b6122c1565b9050919050565b6000819050919050565b61355a83613525565b61356e61356682613547565b8484546134d3565b825550505050565b600090565b613583613576565b61358e818484613551565b505050565b5b818110156135b2576135a760008261357b565b600181019050613594565b5050565b601f8211156135f7576135c8816134a1565b6135d1846134b6565b810160208510156135e0578190505b6135f46135ec856134b6565b830182613593565b50505b505050565b600082821c905092915050565b600061361a600019846008026135fc565b1980831691505092915050565b60006136338383613609565b9150826002028217905092915050565b61364c82612416565b67ffffffffffffffff811115613665576136646127e8565b5b61366f8254612c72565b61367a8282856135b6565b600060209050601f8311600181146136ad576000841561369b578287015190505b6136a58582613627565b86555061370d565b601f1984166136bb866134a1565b60005b828110156136e3578489015182556001820191506020850194506020810190506136be565b8683101561370057848901516136fc601f891682613609565b8355505b6001600288020188555050505b505050505050565b600060408201905061372a60008301856123f8565b818103602083015261373c818461246d565b90509392505050565b7f496e73756666696369656e742066756e64730000000000000000000000000000600082015250565b600061377b601283612421565b915061378682613745565b602082019050919050565b600060208201905081810360008301526137aa8161376e565b9050919050565b7f54617267657420616d6f756e74206d757374206265206772656174657220746860008201527f616e207a65726f00000000000000000000000000000000000000000000000000602082015250565b600061380d602783612421565b9150613818826137b1565b604082019050919050565b6000602082019050818103600083015261383c81613800565b9050919050565b600061384e826122c1565b9150613859836122c1565b925082820390508181111561387157613870612e0d565b5b92915050565b600060808201905061388c60008301876123f8565b6138996020830186612407565b81810360408301526138ab818561246d565b90506138ba60608301846123f8565b95945050505050565b7f4e487b7100000000000000000000000000000000000000000000000000000000600052601260045260246000fd5b60006138fd826122c1565b9150613908836122c1565b925082613918576139176138c3565b5b828204905092915050565b600061392e826122c1565b9150613939836122c1565b925082613949576139486138c3565b5b828206905092915050565b600061395f826122c1565b91506000820361397257613971612e0d565b5b60018203905091905056fea264697066735822122079539f88a02ff6a280ae0de23ed2cb564f2deffcfe7f334c4094568e2179580564736f6c63430008140033",
  "linkReferences": {},
  "deployedLinkReferences": {}
}