{
  "_format": "hh-sol-artifact-1",
  "contractName": "CampaignDonation",
  "sourceName": "contracts/CharityDonation.sol",
  "abi": [
    {
      "anonymous": false,
      "inputs": [
        {
          "indexed": false,
          "internalType": "uint256",
          "name": "id",
          "type": "uint256"
        },
        {
          "indexed": false,
          "internalType": "address",
          "name": "creator",
          "type": "address"
        },
        {
          "indexed": false,
          "internalType": "string",
          "name": "title",
          "type": "string"
        },
        {
          "indexed": false,
          "internalType": "uint256",
          "name": "targetAmount",
          "type": "uint256"
        }
      ],
      "name": "CampaignCreated",
      "type": "event"
    },
    {
      "anonymous": false,
      "inputs": [
        {
          "indexed": false,
          "internalType": "uint256",
          "name": "id",
          "type": "uint256"
        },
        {
          "indexed": false,
          "internalType": "bool",
          "name": "active",
          "type": "bool"
        }
      ],
      "name": "CampaignStatusUpdated",
      "type": "event"
    },
    {
      "anonymous": false,
      "inputs": [
        {
          "indexed": false,
          "internalType": "uint256",
          "name": "id",
          "type": "uint256"
        },
        {
          "indexed": false,
          "internalType": "string",
          "name": "updateMessage",
          "type": "string"
        }
      ],
      "name": "CampaignUpdated",
      "type": "event"
    },
    {
      "anonymous": false,
      "inputs": [
        {
          "indexed": false,
          "internalType": "uint256",
          "name": "campaignId",
          "type": "uint256"
        },
        {
          "indexed": false,
          "internalType": "address",
          "name": "donor",
          "type": "address"
        },
        {
          "indexed": false,
          "internalType": "uint256",
          "name": "amount",
          "type": "uint256"
        }
      ],
      "name": "DonationReceived",
      "type": "event"
    },
    {
      "inputs": [
        {
          "internalType": "uint256",
          "name": "_id",
          "type": "uint256"
        },
        {
          "internalType": "string",
          "name": "_updateMessage",
          "type": "string"
        }
      ],
      "name": "addCampaignUpdate",
      "outputs": [],
      "stateMutability": "nonpayable",
      "type": "function"
    },
    {
      "inputs": [
        {
          "internalType": "uint256",
          "name": "",
          "type": "uint256"
        }
      ],
      "name": "campaigns",
      "outputs": [
        {
          "internalType": "uint256",
          "name": "id",
          "type": "uint256"
        },
        {
          "internalType": "address",
          "name": "creator",
          "type": "address"
        },
        {
          "internalType": "string",
          "name": "title",
          "type": "string"
        },
        {
          "internalType": "string",
          "name": "description",
          "type": "string"
        },
        {
          "internalType": "uint256",
          "name": "targetAmount",
          "type": "uint256"
        },
        {
          "internalType": "uint256",
          "name": "totalDonated",
          "type": "uint256"
        },
        {
          "internalType": "bool",
          "name": "active",
          "type": "bool"
        }
      ],
      "stateMutability": "view",
      "type": "function"
    },
    {
      "inputs": [
        {
          "internalType": "string",
          "name": "_title",
          "type": "string"
        },
        {
          "internalType": "string",
          "name": "_description",
          "type": "string"
        },
        {
          "internalType": "uint256",
          "name": "_targetAmount",
          "type": "uint256"
        }
      ],
      "name": "createCampaign",
      "outputs": [],
      "stateMutability": "nonpayable",
      "type": "function"
    },
    {
      "inputs": [
        {
          "internalType": "uint256",
          "name": "_id",
          "type": "uint256"
        }
      ],
      "name": "donateToCampaign",
      "outputs": [],
      "stateMutability": "payable",
      "type": "function"
    },
    {
      "inputs": [
        {
          "internalType": "uint256",
          "name": "",
          "type": "uint256"
        },
        {
          "internalType": "uint256",
          "name": "",
          "type": "uint256"
        }
      ],
      "name": "donations",
      "outputs": [
        {
          "internalType": "address",
          "name": "donor",
          "type": "address"
        },
        {
          "internalType": "uint256",
          "name": "amount",
          "type": "uint256"
        },
        {
          "internalType": "uint256",
          "name": "timestamp",
          "type": "uint256"
        }
      ],
      "stateMutability": "view",
      "type": "function"
    },
    {
      "inputs": [
        {
          "internalType": "uint256",
          "name": "_id",
          "type": "uint256"
        }
      ],
      "name": "getCampaignUpdates",
      "outputs": [
        {
          "internalType": "string[]",
          "name": "",
          "type": "string[]"
        }
      ],
      "stateMutability": "view",
      "type": "function"
    },
    {
      "inputs": [
        {
          "internalType": "uint256",
          "name": "_id",
          "type": "uint256"
        }
      ],
      "name": "getDonationHistory",
      "outputs": [
        {
          "components": [
            {
              "internalType": "address",
              "name": "donor",
              "type": "address"
            },
            {
              "internalType": "uint256",
              "name": "amount",
              "type": "uint256"
            },
            {
              "internalType": "uint256",
              "name": "timestamp",
              "type": "uint256"
            }
          ],
          "internalType": "struct CampaignDonation.Donation[]",
          "name": "",
          "type": "tuple[]"
        }
      ],
      "stateMutability": "view",
      "type": "function"
    },
    {
      "inputs": [],
      "name": "nextCampaignId",
      "outputs": [
        {
          "internalType": "uint256",
          "name": "",
          "type": "uint256"
        }
      ],
      "stateMutability": "view",
      "type": "function"
    },
    {
      "inputs": [
        {
          "internalType": "uint256",
          "name": "_id",
          "type": "uint256"
        },
        {
          "internalType": "bool",
          "name": "_active",
          "type": "bool"
        }
      ],
      "name": "updateCampaignStatus",
      "outputs": [],
      "stateMutability": "nonpayable",
      "type": "function"
    }
  ],
  "bytecode": "0x608060405234801561001057600080fd5b50611b59806100206000396000f3fe6080604052600436106100865760003560e01c806348f7b12e1161005957806348f7b12e146101505780636e31500c1461018f5780637903a756146101b8578063afb050cd146101e3578063ffa56a571461022057610086565b8063141961bc1461008b5780632869a6e6146100ce57806330c568051461010b57806342a4fda814610134575b600080fd5b34801561009757600080fd5b506100b260048036038101906100ad9190610f70565b610249565b6040516100c597969594939291906116a3565b60405180910390f35b3480156100da57600080fd5b506100f560048036038101906100f09190610f70565b6103c8565b6040516101029190611586565b60405180910390f35b34801561011757600080fd5b50610132600480360381019061012d9190610f99565b6104a4565b005b61014e60048036038101906101499190610f70565b6105fe565b005b34801561015c57600080fd5b5061017760048036038101906101729190611029565b6107cc565b6040516101869392919061152d565b60405180910390f35b34801561019b57600080fd5b506101b660048036038101906101b19190610fd5565b610833565b005b3480156101c457600080fd5b506101cd6109a8565b6040516101da9190611688565b60405180910390f35b3480156101ef57600080fd5b5061020a60048036038101906102059190610f70565b6109ae565b6040516102179190611564565b60405180910390f35b34801561022c57600080fd5b5061024760048036038101906102429190610ef1565b610a9c565b005b60006020528060005260406000206000915090508060000154908060010160009054906101000a900473ffffffffffffffffffffffffffffffffffffffff1690806002018054610298906119dc565b80601f01602080910402602001604051908101604052809291908181526020018280546102c4906119dc565b80156103115780601f106102e657610100808354040283529160200191610311565b820191906000526020600020905b8154815290600101906020018083116102f457829003601f168201915b505050505090806003018054610326906119dc565b80601f0160208091040260200160405190810160405280929190818152602001828054610352906119dc565b801561039f5780601f106103745761010080835404028352916020019161039f565b820191906000526020600020905b81548152906001019060200180831161038257829003601f168201915b5050505050908060040154908060050154908060060160009054906101000a900460ff16905087565b606060016000838152602001908152602001600020805480602002602001604051908101604052809291908181526020016000905b8282101561049957838290600052602060002090600302016040518060600160405290816000820160009054906101000a900473ffffffffffffffffffffffffffffffffffffffff1673ffffffffffffffffffffffffffffffffffffffff1673ffffffffffffffffffffffffffffffffffffffff16815260200160018201548152602001600282015481525050815260200190600101906103fd565b505050509050919050565b600080600084815260200190815260200160002090503373ffffffffffffffffffffffffffffffffffffffff168160010160009054906101000a900473ffffffffffffffffffffffffffffffffffffffff1673ffffffffffffffffffffffffffffffffffffffff161461054c576040517f08c379a000000000000000000000000000000000000000000000000000000000815260040161054390611628565b60405180910390fd5b8115158160060160009054906101000a900460ff16151514156105a4576040517f08c379a000000000000000000000000000000000000000000000000000000000815260040161059b90611668565b60405180910390fd5b818160060160006101000a81548160ff0219169083151502179055507f12669804a7330b3aae37125eb1992ac6ea2995179aff8b791ccdaf8232144f8383836040516105f19291906117a3565b60405180910390a1505050565b60003411610641576040517f08c379a0000000000000000000000000000000000000000000000000000000008152600401610638906115c8565b60405180910390fd5b600080600083815260200190815260200160002090508060060160009054906101000a900460ff166106a8576040517f08c379a000000000000000000000000000000000000000000000000000000000815260040161069f906115a8565b60405180910390fd5b348160050160008282546106bc91906118fc565b925050819055506001600083815260200190815260200160002060405180606001604052803373ffffffffffffffffffffffffffffffffffffffff16815260200134815260200142815250908060018154018082558091505060019003906000526020600020906003020160009091909190915060008201518160000160006101000a81548173ffffffffffffffffffffffffffffffffffffffff021916908373ffffffffffffffffffffffffffffffffffffffff160217905550602082015181600101556040820151816002015550507f0b5b4c52969ff7329ecf7ee536409fda87812b15a8622bc6e8cdeab3aee14a268233346040516107c09392919061176c565b60405180910390a15050565b600160205281600052604060002081815481106107e857600080fd5b9060005260206000209060030201600091509150508060000160009054906101000a900473ffffffffffffffffffffffffffffffffffffffff16908060010154908060020154905083565b600080600084815260200190815260200160002090503373ffffffffffffffffffffffffffffffffffffffff168160010160009054906101000a900473ffffffffffffffffffffffffffffffffffffffff1673ffffffffffffffffffffffffffffffffffffffff16146108db576040517f08c379a00000000000000000000000000000000000000000000000000000000081526004016108d2906115e8565b60405180910390fd5b8060060160009054906101000a900460ff1661092c576040517f08c379a000000000000000000000000000000000000000000000000000000000815260040161092390611608565b60405180910390fd5b8060070182908060018154018082558091505060019003906000526020600020016000909190919091509080519060200190610969929190610cf8565b507f7a9a4f151cc0b6349bd7062416b8f68d1d73c3f457efc221520eb5547595d2d8838360405161099b9291906117cc565b60405180910390a1505050565b60025481565b6060600080838152602001908152602001600020600701805480602002602001604051908101604052809291908181526020016000905b82821015610a91578382906000526020600020018054610a04906119dc565b80601f0160208091040260200160405190810160405280929190818152602001828054610a30906119dc565b8015610a7d5780601f10610a5257610100808354040283529160200191610a7d565b820191906000526020600020905b815481529060010190602001808311610a6057829003601f168201915b5050505050815260200190600101906109e5565b505050509050919050565b60008111610adf576040517f08c379a0000000000000000000000000000000000000000000000000000000008152600401610ad690611648565b60405180910390fd5b60405180610100016040528060025481526020013373ffffffffffffffffffffffffffffffffffffffff16815260200184815260200183815260200182815260200160008152602001600115158152602001600067ffffffffffffffff811115610b72577f4e487b7100000000000000000000000000000000000000000000000000000000600052604160045260246000fd5b604051908082528060200260200182016040528015610ba557816020015b6060815260200190600190039081610b905790505b5081525060008060025481526020019081526020016000206000820151816000015560208201518160010160006101000a81548173ffffffffffffffffffffffffffffffffffffffff021916908373ffffffffffffffffffffffffffffffffffffffff1602179055506040820151816002019080519060200190610c2a929190610cf8565b506060820151816003019080519060200190610c47929190610cf8565b506080820151816004015560a0820151816005015560c08201518160060160006101000a81548160ff02191690831515021790555060e0820151816007019080519060200190610c98929190610d7e565b509050507f825fb10f7650ed27414d6f86acdf7d5946927d9b25001f045f1a2435deec02fe600254338584604051610cd39493929190611720565b60405180910390a160026000815480929190610cee90611a0e565b9190505550505050565b828054610d04906119dc565b90600052602060002090601f016020900481019282610d265760008555610d6d565b82601f10610d3f57805160ff1916838001178555610d6d565b82800160010185558215610d6d579182015b82811115610d6c578251825591602001919060010190610d51565b5b509050610d7a9190610dde565b5090565b828054828255906000526020600020908101928215610dcd579160200282015b82811115610dcc578251829080519060200190610dbc929190610cf8565b5091602001919060010190610d9e565b5b509050610dda9190610dfb565b5090565b5b80821115610df7576000816000905550600101610ddf565b5090565b5b80821115610e1b5760008181610e129190610e1f565b50600101610dfc565b5090565b508054610e2b906119dc565b6000825580601f10610e3d5750610e5c565b601f016020900490600052602060002090810190610e5b9190610dde565b5b50565b6000610e72610e6d8461182d565b6117fc565b905082815260208101848484011115610e8a57600080fd5b610e9584828561199a565b509392505050565b600081359050610eac81611af5565b92915050565b600082601f830112610ec357600080fd5b8135610ed3848260208601610e5f565b91505092915050565b600081359050610eeb81611b0c565b92915050565b600080600060608486031215610f0657600080fd5b600084013567ffffffffffffffff811115610f2057600080fd5b610f2c86828701610eb2565b935050602084013567ffffffffffffffff811115610f4957600080fd5b610f5586828701610eb2565b9250506040610f6686828701610edc565b9150509250925092565b600060208284031215610f8257600080fd5b6000610f9084828501610edc565b91505092915050565b60008060408385031215610fac57600080fd5b6000610fba85828601610edc565b9250506020610fcb85828601610e9d565b9150509250929050565b60008060408385031215610fe857600080fd5b6000610ff685828601610edc565b925050602083013567ffffffffffffffff81111561101357600080fd5b61101f85828601610eb2565b9150509250929050565b6000806040838503121561103c57600080fd5b600061104a85828601610edc565b925050602061105b85828601610edc565b9150509250929050565b60006110718383611191565b905092915050565b600061108583836114cd565b60608301905092915050565b61109a81611952565b82525050565b6110a981611952565b82525050565b60006110ba8261187d565b6110c481856118b8565b9350836020820285016110d68561185d565b8060005b8581101561111257848403895281516110f38582611065565b94506110fe8361189e565b925060208a019950506001810190506110da565b50829750879550505050505092915050565b600061112f82611888565b61113981856118c9565b93506111448361186d565b8060005b8381101561117557815161115c8882611079565b9750611167836118ab565b925050600181019050611148565b5085935050505092915050565b61118b81611964565b82525050565b600061119c82611893565b6111a681856118da565b93506111b68185602086016119a9565b6111bf81611ae4565b840191505092915050565b60006111d582611893565b6111df81856118eb565b93506111ef8185602086016119a9565b6111f881611ae4565b840191505092915050565b60006112106025836118eb565b91507f43616e6e6f7420646f6e61746520746f20616e20696e6163746976652063616d60008301527f706169676e0000000000000000000000000000000000000000000000000000006020830152604082019050919050565b60006112766029836118eb565b91507f446f6e6174696f6e20616d6f756e74206d75737420626520677265617465722060008301527f7468616e207a65726f00000000000000000000000000000000000000000000006020830152604082019050919050565b60006112dc6028836118eb565b91507f4f6e6c79207468652063726561746f722063616e20757064617465207468652060008301527f63616d706169676e0000000000000000000000000000000000000000000000006020830152604082019050919050565b60006113426022836118eb565b91507f43616e6e6f742075706461746520616e20696e6163746976652063616d70616960008301527f676e0000000000000000000000000000000000000000000000000000000000006020830152604082019050919050565b60006113a8602f836118eb565b91507f4f6e6c79207468652063726561746f722063616e20757064617465207468652060008301527f63616d706169676e2073746174757300000000000000000000000000000000006020830152604082019050919050565b600061140e6027836118eb565b91507f54617267657420616d6f756e74206d757374206265206772656174657220746860008301527f616e207a65726f000000000000000000000000000000000000000000000000006020830152604082019050919050565b60006114746021836118eb565b91507f43616d706169676e20697320616c726561647920696e2074686973207374617460008301527f65000000000000000000000000000000000000000000000000000000000000006020830152604082019050919050565b6060820160008201516114e36000850182611091565b5060208201516114f6602085018261150f565b506040820151611509604085018261150f565b50505050565b61151881611990565b82525050565b61152781611990565b82525050565b600060608201905061154260008301866110a0565b61154f602083018561151e565b61155c604083018461151e565b949350505050565b6000602082019050818103600083015261157e81846110af565b905092915050565b600060208201905081810360008301526115a08184611124565b905092915050565b600060208201905081810360008301526115c181611203565b9050919050565b600060208201905081810360008301526115e181611269565b9050919050565b60006020820190508181036000830152611601816112cf565b9050919050565b6000602082019050818103600083015261162181611335565b9050919050565b600060208201905081810360008301526116418161139b565b9050919050565b6000602082019050818103600083015261166181611401565b9050919050565b6000602082019050818103600083015261168181611467565b9050919050565b600060208201905061169d600083018461151e565b92915050565b600060e0820190506116b8600083018a61151e565b6116c560208301896110a0565b81810360408301526116d781886111ca565b905081810360608301526116eb81876111ca565b90506116fa608083018661151e565b61170760a083018561151e565b61171460c0830184611182565b98975050505050505050565b6000608082019050611735600083018761151e565b61174260208301866110a0565b818103604083015261175481856111ca565b9050611763606083018461151e565b95945050505050565b6000606082019050611781600083018661151e565b61178e60208301856110a0565b61179b604083018461151e565b949350505050565b60006040820190506117b8600083018561151e565b6117c56020830184611182565b9392505050565b60006040820190506117e1600083018561151e565b81810360208301526117f381846111ca565b90509392505050565b6000604051905081810181811067ffffffffffffffff8211171561182357611822611ab5565b5b8060405250919050565b600067ffffffffffffffff82111561184857611847611ab5565b5b601f19601f8301169050602081019050919050565b6000819050602082019050919050565b6000819050602082019050919050565b600081519050919050565b600081519050919050565b600081519050919050565b6000602082019050919050565b6000602082019050919050565b600082825260208201905092915050565b600082825260208201905092915050565b600082825260208201905092915050565b600082825260208201905092915050565b600061190782611990565b915061191283611990565b9250827fffffffffffffffffffffffffffffffffffffffffffffffffffffffffffffffff0382111561194757611946611a57565b5b828201905092915050565b600061195d82611970565b9050919050565b60008115159050919050565b600073ffffffffffffffffffffffffffffffffffffffff82169050919050565b6000819050919050565b82818337600083830152505050565b60005b838110156119c75780820151818401526020810190506119ac565b838111156119d6576000848401525b50505050565b600060028204905060018216806119f457607f821691505b60208210811415611a0857611a07611a86565b5b50919050565b6000611a1982611990565b91507fffffffffffffffffffffffffffffffffffffffffffffffffffffffffffffffff821415611a4c57611a4b611a57565b5b600182019050919050565b7f4e487b7100000000000000000000000000000000000000000000000000000000600052601160045260246000fd5b7f4e487b7100000000000000000000000000000000000000000000000000000000600052602260045260246000fd5b7f4e487b7100000000000000000000000000000000000000000000000000000000600052604160045260246000fd5b6000601f19601f8301169050919050565b611afe81611964565b8114611b0957600080fd5b50565b611b1581611990565b8114611b2057600080fd5b5056fea264697066735822122003256a90cb9136b89393ac0bcc9cb153ae01c442792ba4d45a7e3b970df35e8c64736f6c63430008000033",
  "linkReferences": {},
  "deployedLinkReferences": {}
}